:020000040800F2
:100000005817002055020008012E0008F92C00089E
:10001000FD2D00082D0F00081D3400080000000011
:10002000000000000000000000000000092E000891
:100030003D0F000800000000052E00080D2E0008EE
:100040006F0200086F0200086F0200086F020008CC
:100050006F0200086F0200086F0200086F020008BC
:100060006F0200086F0200086F0200086F020008AC
:100070006F0200086F0200086F0200086F0200089C
:100080006F0200086F0200086F0200086F0200088C
:100090006F0200086F0200086F0200086F0200087C
:1000A0006F0200086F0200086F0200086F0200086C
:1000B0006F0200086F0200086F0200086F0200085C
:1000C0006F0200086F0200086F0200086F0200084C
:1000D0006F020008B53300086F0200086F020008C5
:1000E0006F0200086F0200086F0200086F0200082C
:1000F0006F0200086F0200086F0200086F0200081C
:100100006F0200086F0200086F0200086F0200080B
:100110006F0200086F0200086F0200086F020008FB
:100120006F0200086F0200086F0200086F020008EB
:100130006F0200086F0200086F0200086F020008DB
:100140006F0200086F0200086F0200086F020008CB
:10015000310F00086F0200086F0200086F020008EC
:100160006F0200086F0200086F0200086F020008AB
:100170006F0200086F0200086F0200080000000014
:100180006F0200086F02000800F002F800F052F859
:1001900014A696E8000CB244B344DA4501D100F04D
:1001A00049F8BAE80F000FA696E83000A5EB040561
:1001B00004EB0607AAEB0704A7F101074FEA1515A0
:1001C0004FEA3414A4F10104AC4201D300F032F838
:1001D00013F0010F18BFFB1A43F0010300F001F800
:1001E000DBE718474C3500006C350000103A24BF9F
:1001F00078C878C1FAD8520724BF30C830C144BF8C
:1002000004680C6070470000704700000023002461
:1002100000250026103A28BF78C1FBD8520728BF16
:1002200030C148BF0B6070471FB503F063F91FBDB5
:1002300010B510BD00F0C6F91146FFF7F5FF03F049
:1002400005F900F0E4F903B4FFF7F2FF03BC00F096
:10025000EBF900000948804709480047FEE7FEE740
:10026000FEE7FEE7FEE7FEE7FEE7FEE7FEE7FEE766
:1002700004480549054A064B70470000B92E00089E
:100280008901000858110020581700205813002039
:100290005813002053EA020C00F069802DE9F04B5E
:1002A0004FF00006002B1FBFB3FA83F503FA05F4E5
:1002B00024FA05F65E4012BF1643B2FA82F502FA3E
:1002C00005F4C5F120051EBF22FA05FC44EA0C0422
:1002D000203556EA044C4FEA144418BF641C4FF012
:1002E00000084FF00009904271EB030C39D300294C
:1002F00019BFB1FA81F701FA07F6B0FA80F700FAF0
:1003000007F6C7F120071EBF20FA07FC46EA0C06D5
:100310002037B6FBF4FCA7EB0507103F07F01F0BD7
:10032000CBF120062CFA06F60CFA0BFB44BFB346C1
:100330000026202FA4BF5E464FF0000B5BEA060CA0
:1003400008BF4FF0010B19EB0B0948EB0608ABFB9C
:10035000027C06FB02CC0BFB03CCC01B71EB0C0137
:10036000C1E70B46024641464846BDE8F08B13B54F
:10037000084318BF4FF0FF300146AFF30080BDE8DF
:100380001C407047032A40F2308010F0030C00F04C
:10039000158011F8013BBCF1020F624498BF11F8BF
:1003A00001CB00F8013B38BF11F8013BA2F1040278
:1003B00098BF00F801CB38BF00F8013B11F00303F0
:1003C00000F09180083AC0F0088051F8043B083AE8
:1003D00051F804CBA0E80810F5E7121D5CBF51F8F6
:1003E000043B40F8043BAFF30080D20724BF11F870
:1003F000013B11F801CB48BF11F8012B24BF00F8D5
:10040000013B00F801CB48BF00F8012B7047431AAD
:1004100028BF9A427FF6B6AF10441144032A40F237
:10042000268010F0030F1EBF11F8013D521E00F888
:10043000013D10F0030F7FF4F6AF11F0030300F05D
:100440009780083AC0F00B8051F8043D083A51F803
:1004500004CD40F8043D40F804CDFFF7F3BF121D72
:100460005CBF51F8043D40F8043DAFF30080D20773
:1004700024BF11F8013D11F801CD48BF11F8012C3E
:1004800024BF00F8013D00F801CD48BF00F8012C61
:1004900070474FF0000200B5134694469646203947
:1004A00022BFA0E80C50A0E80C50B1F12001BFF42D
:1004B000F7AF090728BFA0E80C5048BF0CC05DF893
:1004C00004EB890028BF40F8042B08BF704748BFE1
:1004D00020F8022B11F0804F18BF00F8012B704755
:1004E00070477047704710B5203AC0F00B80B1E8F4
:1004F0001850A0E81850B1E81850A0E81850203A59
:10050000BFF4F5AF5FEA027C24BFB1E81850A0E861
:10051000185044BF18C918C0BDE810405FEA827C7B
:1005200024BF51F8043B40F8043B08BF7047D20792
:1005300028BF31F8023B48BF11F8012B28BF20F833
:10054000023B48BF00F8012B7047431A28BF9A426C
:100550007FF6C9AF1044114410F0030F1EBF11F80D
:10056000013D521E00F8013D10F0030F7FF4F6AF7D
:10057000103AC0F00A8010B531E9185020E918503F
:10058000103ABFF4F9AFBDE81040530724BF31E97A
:10059000081020E9081044BF51F8043D40F8043D1C
:1005A00012F0030F08BF7047D20728BF31F8023D91
:1005B00048BF11F8012C28BF20F8023D48BF00F8C1
:1005C000012C7047754600F02BF8AE4605006946D1
:1005D000534620F00700854618B020B5FFF748FEC7
:1005E000BDE820404FF000064FF000074FF0000834
:1005F0004FF0000BAC46ACE8C009ACE8C009ACE871
:10060000C009ACE8C00921F007018D46704710B55C
:100610000446AFF300802046BDE81040FFF713BE4C
:10062000004870471000002001491820ABBEFEE7CB
:1006300026000200704700000020C0F6020001689A
:1006400040680022C2F6FE721140A0F1016200F083
:10065000010012F5602F38BF0020B1F1005F18BF14
:10066000002070472DE9F04FADF60C0D40F27006FA
:10067000C2F200067178043911F1030F0ED84AF660
:100680005520C0F20500CDF8020040F20010C5F67A
:100690000750CDF806004FF28A0011E00446B0F58D
:1006A000006F13D94AF65520C0F20500CDF80200BC
:1006B00040F20010C9F60540CDF806004FF20B00DD
:1006C000ADF80A00A5208DF80C00EDE040F67C00A6
:1006D00040F27C05C2F20000C2F20005811D2846EE
:1006E0002246FFF74FFE40F20C00C2F20000D0F8A5
:1006F00000900021C0F6020189454FF00400C0F0CF
:10070000B48009EB040201F5C0218A4200F2AD80F9
:1007100001F04CF8002C00F0D7802F78012C0CD081
:100720006878032C47EA002707D3A878032C47EA08
:1007300000471CBFE87847EA0067032C1AD814F07A
:10074000FC0017D1E0B2C100FF228A40022847EA2C
:1007500002070FD84FF47F428A40022847EA020777
:1007600008D04FF47F0202FA01F10F43002808BFBE
:1007700047F07F47022049463A46002300F0A8FF91
:1007800000286FD1D9F80000B8426BD140F27C004C
:10079000052CC2F20000C0F09780A4F1040B4FF0CA
:1007A000080AA0460BE000BF40F27C00A2450AF117
:1007B000040AABF1040BC2F2000080F085805044C3
:1007C00010F8047CAAF10301A14213D210F8031C13
:1007D000AAF10202A24247EA01270BD210F8021C3A
:1007E000AAF10102A24247EA014703D210F8010C24
:1007F00047EA0067A245A8F104081CD91BF0FC00D9
:1008000019D15FFA88F1C800FF228240022947EA25
:10081000020710D84FF47F428240022947EA0207BC
:1008200009D04FF47F0101FA00F007435FEA086046
:1008300008BF47F07F4709EB0A00051F0220294641
:100840003A46002300F044FF60B92868B84209D155
:10085000AAF1040010F4FE7FA6D1012000F054FE9E
:10086000A2E700BF00F02AFF03204AF65521C0F29C
:100870000501CDF802104FF4807143F22E52ADF80D
:10088000061080F0D501C0F6000232F811108DF884
:100890000800080A8DF8090081F00A008DF80A00A6
:1008A0004AF2F050ADF80B0041F2E800C2F200004D
:1008B0000DF102010B224FF47A7302F051F90DF69B
:1008C0000C0DBDE8F08F00BF00F0F8FE40F20C0305
:1008D000C2F200031868D6E901122044186010190A
:1008E00003228842B06072701ED24AF65520C0F2D0
:1008F0000310CDF802000020C4F28250CDF80600AB
:100900004AF2F050ADF80A0041F2E800C2F20000ED
:100910000DF102010A224FF47A7302F021F90DF66B
:100920000C0DBDE8F08F00BF042001210022002340
:10093000707000F07DFA4FF4FA7000F0E5FD02F0FF
:100940006FFD000070B5ADF5016D042811D140F6C2
:100950007C00C2F20000D0F8060040F2700504BA34
:100960006FF4C0202044C2F2000510F5C02F6C6067
:100970001ED24AF65520C0F20500019040F2001048
:10098000C9F6054002904FF20B00ADF80C00A5200F
:100990008DF80E0041F2E800C2F2000001A90B221E
:1009A0004FF47A7302F0DCF80DF5016D70BD00BFF5
:1009B0000026009600F0FAFE0120C0F2020000F5C9
:1009C00000300321844238BF02210220B4F5003FE9
:1009D00098BF0121059005200196CDE9030162B67B
:1009E00001A8694600F0A4FD009E044600F066FEE2
:1009F000002C08BF16F101000CD04AF65520C0F2B9
:100A00000500019040F20010C5F6026002904FF21E
:100A10004A00BAE70020A86040F20C000021C2F2B0
:100A20000000C0F602010160022068704AF65520FD
:100A3000C0F2021001900020C4F27E4002904AF2FF
:100A4000F050ADF80C0041F2E800C2F2000001A93C
:100A50000A224FF47A7302F083F80DF5016D70BD30
:100A600080B5ADF5016D40F27000C2F200000121C9
:100A700041704AF65520C0F20110CDF80600002062
:100A8000C4F23A40CDF80A004AF2F050ADF80E0038
:100A900041F2E800C2F200000DF106010A224FF413
:100AA0007A7302F05DF80DF5016D80BD40F20C0027
:100AB0000021C2F20000C0F6020140F2700C016099
:100AC00041F2E80040F67C01C2F2000C0023C2F2C1
:100AD0000000C2F2000140F60A02CCE90033CCF873
:100AE000083001F079BF000040F27000C2F200004F
:100AF000407810F0FB0018BF01207047B0B500240B
:100B0000C0F6020420680021C2F6FE710840B0F170
:100B1000005F18BFB0BD656872B600F0D3FC4EF23E
:100B20001001CEF2000100204FF0FF320860486053
:100B30008860C1F87021C1F87022C1F87421C1F831
:100B40007422C1F87821C1F87822C1F87C21C1F85B
:100B50007C22C1F88021C1F88022C1F88421C1F82B
:100B60008422C1F88821C1F88822C1F88C21C1F8FB
:100B70008C2243F61001C4F202010A6008604A6048
:100B800048608A6088600A6108614A6148614EF67F
:100B90000850CEF200000460206880F30888BFF39C
:100BA0004F8FBFF36F8F2846BDE8B040004700006D
:100BB0002DE9F04740F27009C2F2000999F80000EF
:100BC000002808BFBDE8F087B9F802704FF00008B0
:100BD000062F89F80080C0F0E280781E82B24FF0C4
:100BE000FF3140F67C0A534211FA80F50020C2F230
:100BF000000A02E0043082423BD01AF80010552966
:100C00000AEB000102D14C78AA2C27D0854230D0C3
:100C10004C78552C02D18C78AA2C15D01C18A61C07
:100C200027D08E78552E02D1CE78AA2E12D0E61C6F
:100C30001FD0CE78552EDDD10979AA29DAD103301B
:100C400000EB0A010AE000BF40F00101514401300D
:100C500004E000BF40F002015144023048B13F1AA5
:100C600040F67C00BAB2C2F20000FFF7D0FBA9F850
:100C70000270B8B20628C0F09280BAF804100A22B6
:100C800009BA02EB114292B29042C0F0888002EBA6
:100C90000A0010F8022CF02A40F0818010F8010CB4
:100CA000A5287CD1080C062202EB114100EB0A03B7
:100CB0001AF80120DB798DB243EA022C65B143F2C8
:100CC0002E524FF6FF7701F0030E042DC0F60002FE
:100CD00006D200212BE000BF4FF6FF7149E000BFB4
:100CE000AEEB05016FF003050AEB05063479737965
:100CF0007C40E4B232F81440043584EA17277B4084
:100D0000DBB232F81330B77983EA14247C40E4B2C2
:100D100032F81440F67984EA13237340DBB232F8D8
:100D200013304E19043683EA1427DDD1291DBEF194
:100D3000000F1DD01AF80130BCB27B40DBB232F894
:100D40001350BEF1010F85EA142711D051444B789E
:100D5000FCB2634032F81340BEF1020F84EA15275B
:100D600006D08978FBB2594032F8111081EA142775
:100D7000B9B28C450ED19AF8021001290CD19AF81B
:100D80000310032920D002291AD0012904D1FFF72A
:100D900067FE04E0012000E0062000F019F841F2AF
:100DA000E80040F67C01C2F20000C2F2000140F609
:100DB0000A02A9F80280BDE8F04701F00DBE00BFAD
:100DC000FFF7C0FDEBE700BFFFF74CFCE7E70000D3
:100DD00080B5ADF5016D4AF65521C0F20501CDF89B
:100DE00006104FF4807143F22E52ADF80A1080F0D5
:100DF000D501C0F6000232F811108DF80C00080A77
:100E00008DF80D0081F00A008DF80E004AF2F050C6
:100E1000ADF80F0041F2E800C2F200000DF106014A
:100E20000B224FF47A7301F09BFE0DF5016D80BD2E
:100E300080B5ADF5016D8DF8080000208DF8091022
:100E40008DF80A00B2FA82F0B3FA83F14AF6552C13
:100E500040094909ADF806C050EA010C8DF80B3085
:100E600002D04FF0060E04E010784FF0070E8DF818
:100E70000C009DF8061043F22E5281F0FF01C0F6DF
:100E800000029DF8073032F811109DF808004B4021
:100E9000DB43DBB232F81330BCF1000F83EA1121DF
:100EA00080EA0100C0B232F810009DF8091080EA13
:100EB000132381EA0301C9B232F811109DF80A30F8
:100EC00081EA102080EA0300C0B232F810009DF8D9
:100ED0000B3080EA112181EA0301C9B232F8111006
:100EE00081EA102302D00A0A09E000BF9DF80C0035
:100EF000DBB2584032F8100080EA1123020A0DF1EB
:100F0000060101EB0E0001F80E204AF2F052437088
:100F1000428041F2E8000EF10402C2F200004FF4F8
:100F20007A7301F01DFE0DF5016D80BDFEE7000036
:100F300041F28800C2F2000000F0DEB87047000005
:100F400072B600BFFEE70000F0B581B041F2301785
:100F5000044643F60C46C2F200070020C4F2020623
:100F6000F86100F019FD3168C9031BD43068C0076F
:100F70001CBF01203060306810F0F20F30D03068B4
:100F8000C00631D43068800637D4306840063DD47E
:100F90003068000643D43068800749D4012001B08E
:100FA000F0BD00BFC4B10546601C10D13068C0035D
:100FB000DCD53068C00344BF30685FEAC030D5D5A7
:100FC0003068C003F2D4D1E73068C003CED500F05A
:100FD000E3FC401BA042F7D9032001B0F0BD00BFE5
:100FE000002001B0F0BD00BFF86940F01000F861CA
:100FF0001020306030688006C7D5F86940F00800DE
:10100000F8612020306030684006C1D5F86940F0B2
:101010000400F8614020306030680006BBD5F869F4
:1010200040F00200F8618020306030688007B5D55C
:10103000F86940F02000F86102203060012001B022
:10104000F0BD000070B5866D044600F0A5FC94F874
:101050003510022928D105462068216C026822F04B
:1010600016020260426922F08002426109B9A16C55
:1010700019B1016821F008010160016821F0010146
:10108000016000BF20680068C00715D000F084FC34
:10109000401B0628F6D320206065032084F8350025
:1010A000002184F8341070BD80206065012000218B
:1010B00084F8341070BD00BFE06D3F2101FA00F0EC
:1010C000B060012084F835000020002184F834103D
:1010D00070BD000090F83510022909D1052180F873
:1010E00035100068016821F001010160002070479F
:1010F0008021416501207047F0B581B00021009149
:1011000040F20801C2F200010B68D0E9166148F212
:10111000B51537680822C1F64E358A403A42A3FB1E
:1011200005350CD003681C68640708D51C6824F0DA
:1011300004041C60B260426D42F00102426501226B
:101140008A403A4208D003685B691B0604D5B26046
:10115000426D42F00202426504228A403A4208D0BF
:1011600003681B689B0704D5B260426D42F004021D
:10117000426510228A403A4219D001680B681B0769
:1011800015D5B2600B680A685B0309D4D20509D48F
:101190000A6822F008020A60016C29B907E000BF62
:1011A000110341D4016C11B1044688472046C26D39
:1011B000202101FA02F33B4243D001680F68FF0689
:1011C0003FD5B36090F835700B68052F1CD123F024
:1011D00016030B604B6923F080034B61036C0BB962
:1011E000836C1BB10B6823F008030B603F21914017
:1011F000B160012180F83510016D0022002980F8CE
:10120000342054D158E000BF0A685B0310D4D205E3
:1012100012D40A6822F010020A60012180F8351009
:10122000002180F8341007E0816C0029BCD1BEE7B2
:10123000110301D4416C00E0C16B11B10446884731
:101240002046416DC1B3416DC9072ED0052180F8FC
:1012500035100168AA0A0B6823F001030B60009B9C
:101260000133934200931AD80B68DB0717D0009B19
:1012700001339342009312D80B68DB070FD0009B19
:101280000133934200930AD80B68DB0707D0009B19
:1012900001339342009302D80B68DB07DFD10121B1
:1012A00080F83510002180F83410C16C21B101B0F4
:1012B000BDE8F040084700BF01B0F0BD2DE9F041A6
:1012C000044600F069FBECB10546022084F83500C5
:1012D0000020216884F83400086820F001000860CC
:1012E00021680868C00711D000F056FB401B052894
:1012F000F6D9032520230320636584F83550BDE823
:10130000F08100BF0120BDE8F08100BF086848F20D
:101310003F02CFF21002D4E9013500EA020C04F1D9
:101320000C0898E8C10143EA0C032B431843D4E9A5
:10133000072E304338431043626A40EA0E00042A05
:1013400040EA08031CD1206BD4E90A2E40EA0E00C3
:10135000184308604869BEF1000F20F0030040EA1E
:10136000020040F0040C11D0B8F5005F36D0B8F19F
:10137000000F45D1022A46D0012A3BD032B942E0C3
:101380000B60486920F0070040EA020C01F0F80009
:101390004AF6AB221038CAF6AA22A0FB02231A0989
:1013A00043F22653C1F814C0C0F600039A5C40F221
:1013B000FF335F284FF03F0021EA030100FA02F0FB
:1013C00088BF0431C4E9161288600023012500207B
:1013D000636584F83550BDE8F08100BF032AD5D895
:1013E000012540230120DFE802F0030E030500BFC2
:1013F00082E700BFAEF1C070B0FA80F0400904E0AF
:10140000032A04D3C2D1CEF300600028BED0012548
:1014100040230120636584F83550BDE8F081000069
:1014200090F834C0BCF1010F04BF0220704770B5C2
:101430004FF0010C80F834C0D0F858E090F835C077
:10144000BCF1010F38D14FF0020C80F835C04FF0DD
:10145000000CC0F854C0D0F800C08468056CC06DA2
:10146000DCF80060402C26F48026CCF80060CCF834
:1014700004300B4604BF13460A463F2101FA00F030
:10148000CCF80830CCF80C20CEF80800DCF80000CE
:1014900040F01600CCF800002DB1DCF8000040F060
:1014A0000800CCF80000DCF8000040F00100CCF8A7
:1014B0000000002070BD00BF002180F83410022021
:1014C00070BD000080B543F610004CF6FF11C4F269
:1014D0000200CFF2FE6147F6331201610021C0F233
:1014E00077420161426141F2FF12C2F26022416122
:1014F0000260C1220160426001224160826081601D
:1015000000F09EFA002080BDB0B5044600F044FA19
:10151000054640F20000C2F200000078611C18BFCE
:10152000044400BF00F038FA401BA042FAD3B0BD1B
:101530002DE9F04381B041F23018C2F2000898F86A
:101540001820012A04D1022001B0BDE8F08300BFB9
:101550000546012088F818004CF250308946FFF704
:10156000F3FC28B1002188F8181001B0BDE8F08321
:101570004FF0FF30C9F80000286843F610470128F3
:10158000C4F202071CD128693968000221F44071B5
:101590003960396880B241F0040139603968084324
:1015A00040F4803038604CF25030FFF7CDFC3968A1
:1015B00021F00401396057F8101C89053BD452E032
:1015C000D5E902603044864230D2F000841C00BF6E
:1015D00028694FF44072C1B2032939684FEA0020EC
:1015E00021F440713960396838BF82B241EA0200A3
:1015F0003860386820F078003860386820433860F8
:10160000386840F4803038604CF25030FFF79CFC72
:101610003968002821F07A01396047D1D5E9020103
:1016200001360844864204F10804D1D3002057F85B
:10163000101C890517D557F8101C21F4007147F8C4
:10164000101C57F8101C41F4006147F8101C57F8A3
:10165000101C21F4006147F8101C57F8101C41F4CD
:10166000007147F8101C57F8101C49057FF57AAF38
:1016700057F8101C21F4806147F8101C57F8101C13
:1016800041F4805147F8101C57F8101C21F4805188
:1016900047F8101C57F8101C41F4806147F8101CE3
:1016A000002188F8181001B0BDE8F083C9F8006087
:1016B00057F8101C8905BED4D5E7000043F6104149
:1016C000C4F20201086840F0004200200A6070473E
:1016D0002DE9F04141F23014C2F20004277E012FBF
:1016E00004BF0220BDE8F0810546012020764CF2BF
:1016F000503098460F461646FFF726FC20B10021D1
:101700002176BDE8F08100BF2A46022D43F6104540
:10171000C4F202051ED0012A314638460CD03ABB2D
:101720002A6822F440722A602A682A602A6842F0F5
:1017300001022A6001702CE02A6822F440722A60BB
:101740002A6842F480722A602A6842F001022A6004
:1017500001801EE0286820F440702860286840F46A
:1017600000702860286840F0010028603E6010E0AA
:101770002A6822F440722A602A6842F440722A6081
:101780002A6842F001022A600160BFF36F8FC0F83F
:1017900004804CF25030FFF7D7FB296821F001019B
:1017A000296000212176BDE8F081000043F6044065
:1017B000C4F20200C168B1F1FF3FC4BF002070470E
:1017C00040F22311C4F26751016048F6AB11CCF628
:1017D000EF510160C068C00F704700002DE9F04F65
:1017E00083B000F1200200F13E4741F6004500922F
:1017F00007F1FF77C4F2020508224FEAB726A84294
:1018000008BF072200254FF000084FF00009072EFF
:1018100038BF4FEAB72201920AE000BF09F101097F
:1018200008F10208B9F1100F05F1040500F0A280DB
:101830000F68012202FA09FE17EA0E0AEED0D1F86B
:1018400004C003220CF003077E1E02FA08F4012EE6
:101850006FEA040B12D88468CE6804EA0B0406FA17
:1018600008F634438460446824EA0E06CCF300147E
:1018700004FA09F42643466004E000BF032F01D1B7
:1018800003271EE0C6688C6806EA0B0604FA08F413
:101890002643022FC66014D16FF00302009E02EAB5
:1018A000590756F807C005F01C040F220B69A24027
:1018B0002CEA0202A3401A43F251D1F804C00CF002
:1018C0000307026807FA08F302EA0B021A431CF442
:1018D000403F0260A2D0002243F644030292C4F2C9
:1018E00002031A6843F6004442F480421A601A6800
:1018F000C4F2010402F480420292029A29F0030227
:101900004FF6084C2244CFF6FF7C52F80C3005F01D
:101910000C070F26BE40B343019E06FA07F73B4370
:1019200042F80C30A2684B6842EA0A0743F60C4CB6
:10193000DE0258BF22EA0A07A760C4F2010CDCF8F5
:1019400000209E0242EA0A0758BF22EA0A07CCF8A2
:10195000007062689E0342EA0A0758BF22EA0A073B
:1019600067602268DB0342EA0A0758BF22EA0A07D7
:10197000276053E703B0BDE8F08F0000426902EA38
:101980000103914341EA034181617047002A08BF86
:10199000090481617047000041F25010C2F200005A
:1019A0000068704740F2000041F25011C2F200009E
:1019B000C2F2000100780A68104408607047000015
:1019C00080B543F60040C4F20200016841F40071A2
:1019D0000160016841F480610160016841F4807137
:1019E0000160032000F088F80F2000F005F800F0F7
:1019F00029F8002080BD000070B540F20006C2F258
:101A0000000640F208013278C2F200014FF47A7306
:101A10000968B3FBF2F20446B1FBF2F1084600F0AC
:101A200063FB0F2C4FF0010508D838B94FF0FF3099
:101A300021460022002500F033F87460284670BD6E
:101A40007047000082B0002043F640010190C4F2CC
:101A500002014A6842F480424A604A6802F48042C5
:101A60000192019A0090086840F080500860086870
:101A700000F080500090009802B07047002848BFE6
:101A8000704700F01F01012202FA01F11C2202EA54
:101A9000D0004EF20012CEF20002815070470000DA
:101AA00010B54EF60C5CCEF2000CDCF80030C3F33F
:101AB000022E8EF00704042C28BF0424BEF1030379
:101AC0004FF0FF3E0EFA04F438BF0023A1439940C3
:101AD0000EFA03F39A43114300F00F0200F1604342
:101AE0000901043A03F564436244002848BF02F147
:101AF0000C03197010BD00004EF60C51CEF200011F
:101B00000A684FF6FF031A4060F30A2242F0806031
:101B100040F0FD7008607047002804BF0120704746
:101B20002DE9F04143F60808C4F202080446D8F84B
:101B3000F8030D4600F00700814207D988F8F853F2
:101B4000D8F8F80300F00700A84277D12068810791
:101B500017D5410705D5D8F8001041F4E051C8F871
:101B60000010010705D5D8F8001041F46041C8F80D
:101B70000010D8F80010A26821F0F0011143C8F855
:101B80000010C00740D1D8F8F80300F007008542E4
:101B900007D288F8F853D8F8F80300F00700A842F5
:101BA0004CD12068410707D5D8F80010E26821F42D
:101BB000E0511143C8F80010000708D5D8F800001C
:101BC000216920F4604040EAC100C8F8000000F03C
:101BD0007DF8D8F8001043F20E52C1F30311C0F69D
:101BE0000002515C40F2080220FA01F140F20400C8
:101BF000C2F200000068C2F200021160FFF7FCFEB2
:101C00000020BDE8F08100BF6068811E022907D274
:101C100058F8081C89015CBF0120BDE8F08111E083
:101C2000012807D158F8081C89035CBF0120BDE8D2
:101C3000F08107E058F8081C890703D40120BDE8AB
:101C4000F08100BFD8F8001021F003010843C8F864
:101C50000000FFF7A1FE064641F28837D8F80000E1
:101C6000616800F00C00B0EB810F8CD0FFF794FEA0
:101C7000801BB842F2D90320BDE8F08140F2080091
:101C800043F60801C2F20000C4F2020100680968CC
:101C900043F21E52C1F38221C0F60002515CC840DB
:101CA0007047000040F2080043F60801C2F200004D
:101CB000C4F202010068096843F21E52C1F34231C6
:101CC000C0F60002515CC8407047000010B543F6F2
:101CD0000404C4F202046168C1F3810142F20040CD
:101CE000C0F2F400DFE801F002040A0210BD00BFF8
:101CF00041F20020C0F27A0010BD00BF216801F05F
:101D00003F02216823684902C3F3881106D4A1FB6E
:101D100000010023FEF7BEFA07E000BF41F20020F9
:101D2000C0F27A004843B0FBF2F021680222C1F30E
:101D3000014102EB4101B0FBF1F010BD002804BFEE
:101D4000012070472DE9F04182B00446007843F647
:101D50000006C007C4F202060CD0B06800F00C0008
:101D6000042840F081803068800303D56068002833
:101D700000F06881207880071BD5B06810F00C0F48
:101D800009D0B06800F00C00082840F08780706827
:101D9000400200F183803068800703D5E0680128A5
:101DA00040F050813068216920F0F80040EAC1001D
:101DB00030602078000713D4207840072AD4A56922
:101DC000002D00F03A81B06800F00C00082840F0C7
:101DD000A580012D40F00E81012002B0BDE8F08108
:101DE0006069002800F082800020C4F247200121B1
:101DF000C0F8801EFFF7D0FD054600BF706F80075A
:101E0000DAD4FFF7C9FD401B0228F7D9032002B03E
:101E1000BDE8F081306C5FEAC0080AD40020019070
:101E2000306C40F080503064306C00F08050019095
:101E3000019847F20007C4F200073868C00547D48C
:101E4000386840F480703860FFF7A6FD054600BF93
:101E50003868C0053CD4FFF79FFD401B0228F7D926
:101E6000032002B0BDE8F081B06800F00C00082843
:101E700003D1706840023FF576AF61683068B1F514
:101E8000803F07D0B1F5A02F40F09A8040F4802029
:101E90003060306840F4803030609AE0E0680028BC
:101EA00040F20000C4F247205CD001210160FFF73E
:101EB00073FD0546306880073FF574AFFFF76CFD92
:101EC000401B0228F6D9032002B0BDE8F08100BF14
:101ED000A168306F012905D0052955D140F00400D3
:101EE0003067306F40F00100306756E00020C4F2E8
:101EF00047200021C0F8801EFFF74EFD054600BFB9
:101F0000706F80077FF558AFFFF746FD401B022832
:101F1000F6D9032002B0BDE8F08100BF0027C4F26B
:101F2000472700203866FFF737FD022D05460DD103
:101F30003068800140F18A80FFF72EFD401B0228A7
:101F40004FF00300F4D902B0BDE8F08130688001A1
:101F500073D5FFF721FD401B02284FF00300F5D990
:101F6000F1E700BF00210160FFF716FD054600BF45
:101F7000306880077FF51DAFFFF70EFD401B02287C
:101F80004FF00300F4D9DEE720F001003067306F36
:101F9000002920F0040030677AD0FFF7FDFC0546E9
:101FA00041F28837306F800700F18480FFF7F4FC3E
:101FB000401BB842F6D9032002B0BDE8F08100BF53
:101FC00020F4803030603068002920F480203060B8
:101FD0007AD0FFF7E1FC0546306880033FF5CAAED2
:101FE000FFF7DAFC401B6428F6D9032002B0BDE8F5
:101FF000F08100BF7068E16900F480028A4221D15B
:10200000216A00F03F028A421CD147F6C071626A21
:102010000140B1EB821F15D1A16A4FF6FF73C903CE
:10202000994300F44032A1F580318A420AD1E16A35
:1020300000F07060B0EB016F04D1002002B0BDE889
:10204000F08100BF012002B0BDE8F08104F11C0561
:102050002FCD084340EA8210D9034FF6FF72914317
:10206000A1F5803140EA05600843706001203866C0
:10207000FFF792FC044600BF30688001DDD4FFF713
:102080008BFC001B02284FF00300F5D95BE700BF73
:10209000FFF782FC054641F2883700BF306F8007AA
:1020A00008D5FFF779FC401BB8424FF00300F5D983
:1020B00049E700BFB8F1000F3FF581AE306C20F06A
:1020C000805030647BE600BFFFF766FC054600BF2A
:1020D000306880037FF54EAEFFF75EFC401B64283E
:1020E0004FF00300F4D92EE7411E0020B0EB116F32
:1020F0001CBF012070474EF21002CEF20002516068
:102100004EF62351CEF20001F0230B7007219060B0
:10211000116070477047000010B5044600684169BF
:1021200094F84120212A56D111F0800153D000BFEC
:10213000206850E8050F216820F0800041E8050282
:10214000DAB1206850E8050F216820F0800041E8EE
:10215000050292B1206850E8050F216820F0800048
:1021600041E805024AB1206850E8050F216820F0D7
:10217000800041E80502002ADAD1A06B002818BFD0
:10218000FEF760FF206850E8030F216820F0C000D0
:1021900041E80302DAB1206850E8030F216820F01B
:1021A000C00041E8030292B1206850E8030F2168A3
:1021B00020F0C00041E803024AB1206850E8030F54
:1021C000216820F0C00041E80302002ADAD1202073
:1021D00084F841002068406994F84210222940F0B8
:1021E000A78010F0400000F0A38000BF206850E8F6
:1021F000050F216820F0400041E80502DAB12068AF
:1022000050E8050F216820F0400041E8050292B136
:10221000206850E8050F216820F0400041E80502E1
:102220004AB1206850E8050F216820F0400041E8DD
:102230000502002ADAD1E06B002818BFFEF702FF82
:10224000206850E8030F216820F4907041E80302F1
:10225000BAB3206850E8030F216820F4907041E879
:10226000030272B3206850E8030F216820F49070D5
:1022700041E803022AB3206850E8030F216820F4E4
:10228000907041E80302002ADAD11AE0206850E891
:10229000050F216820F0010041E80502DAB120684D
:1022A00050E8050F216820F0010041E8050292B1D5
:1022B000206850E8050F216820F0010041E8050280
:1022C0004AB1206850E8050F216820F0010041E87C
:1022D0000502002ADAD1206B012824D1206850E8B9
:1022E000030F216820F0100041E80302DAB12068F2
:1022F00050E8030F216820F0100041E8030292B17A
:10230000206850E8030F216820F0100041E8030224
:102310004AB1206850E8030F216820F0100041E81E
:102320000302002ADAD1202084F842000020206332
:10233000002010BD70470000B0B582B001680A6887
:10234000CC684B6902F02F05202D04F0200505D143
:1023500025B102B0BDE8B04000F038BF5FEA027CB2
:102360001EBF03F0010E04F4907313EB0E0341D172
:10237000036BD50618D5012B16D114F0100313D01A
:10238000002201920A6801924A680192019A496901
:1023900049064BD4818DC28DC38D002B18BF91424D
:1023A00040F0068202B0B0BD13062DD514F08003B4
:1023B0002AD090F84120212AF4D18268B2F5805FBA
:1023C00003D10269002A00F07982026A531C036279
:1023D00012784A60C28C013A1304C284E2D1C86800
:1023E00020F08000C860C86840F04000C86002B0BB
:1023F000B0BD00BFD30718BF14F4807340F0E28073
:10240000530700F1E580EAE05206CBD514F0400214
:10241000C8D0CA6822F04002CA60202180F841106A
:1024200002B0BDE8B04000F065BC00BFC26B1168EF
:102430004B68858D99B2002900F0B480A94280F0E4
:10244000B180C385D169B1F5807F00F0A0800168BB
:1024500051E8031F026821F4807142E80313DBB1E5
:10246000016851E8031F026821F4807142E80313F8
:1024700093B1016851E8031F026821F4807142E8BA
:1024800003134BB1016851E8031F026821F4807106
:1024900042E80313002BDAD1016851E8051F0268F6
:1024A00021F0010142E80513BBB3016851E8051FA3
:1024B000026821F0010142E8051373B3016851E895
:1024C000051F026821F0010142E805132BB30168E2
:1024D00051E8051F026821F0010142E80513002BB5
:1024E000DAD11AE0016851E8051F026821F04001C5
:1024F00042E80513DBB1016851E8051F026821F0CD
:10250000400142E8051393B1016851E8051F0268D4
:1025100021F0400142E805134BB1016851E8051F65
:10252000026821F0400142E80513002BDAD1202196
:1025300080F8421000210163016851E8031F02681E
:1025400021F0100142E80313DBB1016851E8031FD9
:10255000026821F0100142E8031393B1016851E8C9
:10256000031F026821F0100142E803134BB1016818
:1025700051E8031F026821F0100142E80313002B09
:10258000DAD1C16B04460846FEF75CFD2046022105
:102590004163818DC28D891A89B202B0BDE8B04015
:1025A000FFF7B8BD8D427FF4FDAED269B2F5807FF2
:1025B0007FF4F8AE0222426302B0BDE8B040FFF7FC
:1025C000A9BD00BF436C43F001034364530706D524
:1025D000BEF1000F03D0436C43F002034364930742
:1025E00006D5BEF1000F03D0436C43F004034364EF
:1025F000BCF1000F06D55EEA050303D0436C43F03F
:1026000008034364436C002B3FF4CCAE920605D51F
:1026100025B1044600F0DAFD216820464969426C84
:1026200001F0400102F00802891800F0B98000BFF3
:10263000016851E8031F026821F4907142E8031316
:10264000BBB3016851E8031F026821F4907142E8AE
:10265000031373B3016851E8031F026821F49071FA
:1026600042E803132BB3016851E8031F026821F409
:10267000907142E80313002BDAD11AE0016851E8A7
:10268000051F026821F0010142E80513DBB1016872
:1026900051E8051F026821F0010142E8051393B1DA
:1026A000016851E8051F026821F0010142E80513A5
:1026B0004BB1016851E8051F026821F0010142E8B1
:1026C0000513002BDAD1016B012924D1016851E8EF
:1026D000031F026821F0100142E80313DBB1016817
:1026E00051E8031F026821F0100142E8031393B17F
:1026F000016851E8031F026821F0100142E803134A
:102700004BB1016851E8031F026821F0100142E853
:102710000313002BDAD1202180F84210002101633D
:1027200001684969490640F1C380016851E8051F05
:10273000026821F0400142E80513DBB1016851E86D
:10274000051F026821F0400142E8051393B10168BA
:1027500051E8051F026821F0400142E805134BB122
:10276000016851E8051F026821F0400142E80513A5
:10277000002BDAD1C16B002900F09A8042F6CD62BD
:10278000C0F60002044608460A65FEF7A3FC0028CE
:102790003FF408AEE06B016D02B0BDE8B040084701
:1027A0000446FFF7C7FD0020606402B0B0BD00BF63
:1027B000891A00BF026852E8032F036822F490725E
:1027C00043E80325BDB3026852E8032F036822F4EF
:1027D000907243E8032575B3026852E8032F03683B
:1027E00022F4907243E803252DB3026852E8032FC8
:1027F000036822F4907243E80325002DDAD11AE031
:10280000026852E8052F036822F0010243E805251B
:10281000DDB1026852E8052F036822F0010243E8A7
:10282000052595B1026852E8052F036822F00102E0
:1028300043E805254DB1026852E8052F036822F0F0
:10284000010243E80525002DDAD1202280F842203C
:1028500000220263026852E8032F036822F010028C
:1028600043E80325DDB1026852E8032F036822F034
:10287000100243E8032595B1026852E8032F03686C
:1028800022F0100243E803254DB1026852E8032FFD
:10289000036822F0100243E80325002DDAD102225A
:1028A00089B2426302B0BDE8B040FFF733BC00BF5D
:1028B00002B0BDE8B040FFF73DBD00BF026A32F88C
:1028C000023B6FF35F234B60026283E5002804BF85
:1028D0000120704710B5044690F8410028B9002047
:1028E00084F84000204600F021F8242084F84100BC
:1028F0002068C16821F40051C160204600F0E6FC68
:102900002068016921F490410161416921F02A01A7
:102910004161C16841F40051C16000202021606420
:1029200084F8411084F84210606310BDB0B586B0E1
:1029300041F200010068C4F20101002488420594BC
:10294000CDE903440294019402D006B0B0BD00BFAB
:1029500043F630050094C4F20205686940F01000A7
:102960006861686900F01000009000980094286881
:1029700040F001002860286800F0010000900098F5
:102980004FF4C06001900220CDE9020403200490BE
:102990000720059001F5704001A9FEF71FFF009484
:1029A0002868002140F4800028602868002200F494
:1029B0008000009000982520FFF772F82520FFF78F
:1029C0005DF8442001210022FFF76AF84420FFF758
:1029D00055F806B0B0BD000070B582B090F8425016
:1029E000202D0BD113460A460146002A4FF0010064
:1029F00018BF002B06D102B070BD00BF022002B08C
:102A000070BD00BF002622200E638A628B854E6453
:102A100081F842000C680D46C86B43F2550C43F236
:102A2000B511C0F6000CC0F60001C0E90FC142F6B6
:102A3000D961C0F60001C0E91316211DFEF7F0FCB4
:102A400040B110206864202085F84200012002B0C7
:102A500070BD00BF0196286829460268019240684F
:102A600001900198286928B3086850E8030F0A68A4
:102A700040F4807042E80303E3B1086850E8030FB4
:102A80000A6840F4807042E803039BB1086850E88C
:102A9000030F0A6840F4807042E8030353B10868EA
:102AA00050E8030F0A6840F4807042E80303002BEB
:102AB000DAD100BF086850E8050F0A6840F001004D
:102AC00042E80503DBB3086850E8050F0A6840F0E8
:102AD000010042E8050393B3086850E8050F0A684F
:102AE00040F0010042E805034BB3086850E8050FC9
:102AF0000A6840F0010042E80503002BDAD11EE02D
:102B0000086850E8050F0A6840F0400042E80503F5
:102B1000FBB1086850E8050F0A6840F0400042E841
:102B20000503B3B1086850E8050F0A6840F040009B
:102B300042E80503002B4FF000003FF45CAF08684B
:102B400050E8050F0A6840F0400042E80503002BFA
:102B5000D6D1002002B070BD704700007047000061
:102B60002DE9F04381B0044690F84100202809D1B6
:102B700000294FF0010018BF002A07D101B0BDE8BD
:102B8000F08300BF022001B0BDE8F0830020606444
:102B900021201D460E4684F841001746FEF7FCFE34
:102BA000A784E784A1688146B1F5805F02D12069DE
:102BB00000285DD037460020E28C2168002A5DD0D5
:102BC0006A1C24D0002D4AD0804600BF0868000649
:102BD00008D4FEF7E1FEA0EB0900A8427AD82168EC
:102BE000C868F3E717B117F8010B04E038F8020BD7
:102BF00000276FF35F204860E08C0138E084E08CB0
:102C00000028E3D13AE000BF0A68120609D40A6836
:102C1000120606D40A6812065CBF0A685FEA0262FE
:102C2000F2D51FB117F8012B05E000BF30F8022BD9
:102C300000276FF35F224A60E28C013AE284E28C63
:102C4000002AE4D11AE000BF30F8022B00276FF30E
:102C50005F224A60E28C013AE284E28C72B10A6837
:102C6000120635D5002FEFD017F8012BF1E700BF82
:102C700000273046E28C2168002AA1D1086840066E
:102C80001ED42DB3681C14D1086840062AD40868E5
:102C9000400627D40868400624D4086840064FF050
:102CA0000000F1D50DE000BF2068C1680068400653
:102CB00018D4FEF771FEA0EB0900A842F4D909E090
:102CC0000020202184F8411001B0BDE8F08300BF4E
:102CD000FEF762FE0320202184F8411001B0BDE818
:102CE000F08300BF0020202184F8411001B0BDE82E
:102CF000F083000070470000FEE7000070B586B06A
:102D0000002543F630000595CDE90355CDE9015581
:102D10000095C4F202000168002441F00401016042
:102D20000168C4F2020401F00401009100990095C9
:102D30000168002241F0800101600168C02601F0B5
:102D40008001009100990095016841F00101016046
:102D50000068C02100F00100009000982046FEF7B6
:102D600015FE0120CDE9020501A920460196049532
:102D7000FEF734FD06B070BD70B541F2E80441F2D3
:102D80000000C2F20004C4F201004FF4E131002659
:102D90000C2284E843002046C4E90366C4E9052602
:102DA000E661FFF793FD002818BFFEF7C9F841F26E
:102DB000880546F28840C2F20005C4F202004FF0D6
:102DC000006185E843004FF400304FF48062C5E9AC
:102DD00008062846C5E90362C5E90566EE61FEF707
:102DE0006DFA002818BFFEF7ABF82068E563AC6306
:102DF000C16841F01001C16070BD0000FEE7000035
:102E0000FEE700007047000070470000FEF7CABDF3
:102E100070B592B006AC20463021FDF73AFB002594
:102E200043F640000595CDE90355CDE901550095E0
:102E3000C4F202000168022641F08051016000687E
:102E400000F080500090009847F200000095C4F216
:102E50000000016841F4804101600068A82100F48D
:102E6000804000900098012006904FF48030079039
:102E70004FF480000D9004200E90119020460C9687
:102E8000CDE90F16FEF75AFF10B172B6FEE700BF8C
:102E90000F20CDE901064FF4A05004904FF480506C
:102EA000059001A805210395FEF736FE10B172B614
:102EB000FEE700BF12B070BD4EF68850CEF20000A3
:102EC000016841F47001016070470000806B0021CF
:102ED000C185FFF72FBA0000806B01684A6990F83E
:102EE0004130212B2DD112F080022AD00021C18443
:102EF000016851E8031F026821F0C00142E8031392
:102F0000DBB1016851E8031F026821F0C00142E80B
:102F1000031393B1016851E8031F026821F0C00157
:102F200042E803134BB1016851E8031F026821F026
:102F3000C00142E80313002BDAD1202180F84110B0
:102F40000168496990F84220222A40F07D8011F002
:102F5000400179D00021C185016851E8031F026852
:102F600021F4907142E80313BBB3016851E8031FD9
:102F7000026821F4907142E8031373B3016851E8C9
:102F8000031F026821F4907142E803132BB3016818
:102F900051E8031F026821F4907142E80313002BEB
:102FA000DAD11AE0016851E8051F026821F0010139
:102FB00042E80513DBB1016851E8051F026821F002
:102FC000010142E8051393B1016851E8051F026849
:102FD00021F0010142E805134BB1016851E8051FDA
:102FE000026821F0010142E80513002BDAD1016BE0
:102FF000012924D1016851E8031F026821F0100162
:1030000042E80313DBB1016851E8031F026821F0B5
:10301000100142E8031393B1016851E8031F0268ED
:1030200021F0100142E803134BB1016851E8031F7E
:10303000026821F0100142E80313002BDAD12021AD
:1030400080F8421000210163416C41F0100141649D
:10305000FFF770B90168806B0968C90500F19F80AE
:103060000021C185016851E8031F026821F48071C5
:1030700042E80313E3B1016851E8031F026821F439
:10308000807142E803139BB1016851E8031F026895
:1030900021F4807142E8031353B1016851E8031F22
:1030A000026821F4807142E80313002BDAD100BFDB
:1030B000016851E8051F026821F0010142E805138B
:1030C000BBB3016851E8051F026821F0010142E825
:1030D000051373B3016851E8051F026821F001016F
:1030E00042E805132BB3016851E8051F026821F07F
:1030F000010142E80513002BDAD11AE0016851E81A
:10310000051F026821F0400142E80513DBB10168A8
:1031100051E8051F026821F0400142E8051393B110
:10312000016851E8051F026821F0400142E80513DB
:103130004BB1016851E8051F026821F0400142E8E7
:103140000513002BDAD1202180F84210016B0129F0
:1031500025D100BF016851E8031F026821F010016A
:1031600042E80313DBB1016851E8031F026821F054
:10317000100142E8031393B1016851E8031F02688C
:1031800021F0100142E803134BB1016851E8031F1D
:10319000026821F0100142E80313002BDAD100216C
:1031A0004163016B012918BFFFF7D6BC818DFEF783
:1031B000B1BF0000806B01214163016B012918BF81
:1031C000FFF7CCBC818D4908FEF7A4BF81B090F811
:1031D0004210222921D183680246B3F5805F09D1CC
:1031E00052F8281F52F8183C002B63D003685B6824
:1031F0000AE000BF52F8281F13B90369002BF5D06D
:1032000003685B6803F07F030B7011680131116084
:10321000C18D01390A04C18502D001B0704700BFD9
:103220000168CA6822F02002CA60CA6822F480726B
:10323000CA604A6922F001024A61202180F84210E6
:1032400000214163026B012A3CD10163016851E80E
:10325000031F026821F0100142E80313DBB101688B
:1032600051E8031F026821F0100142E8031393B1F3
:10327000016851E8031F026821F0100142E80313BE
:103280004BB1016851E8031F026821F0100142E8C8
:103290000313002BDAD101680A68D20606D5002292
:1032A00000920A680092496800910099818D01B0EE
:1032B000FEF730BF026852686FF35F2221F8022BDD
:1032C0008162A5E701B0FFF747BC0000B0B5044636
:1032D000006804F108030ECB0569194325F4405535
:1032E0002A4302616269E3691143C268194349F2E2
:1032F0000C639A431143C1604169A26921F4407192
:1033000041F20043114340F48062C4F201039A4247
:10331000416103D1FEF7C6FC02E000BFFEF7AEFC40
:10332000E1694FF69C7563681922C0F6FF75B1F527
:10333000004FA0FB02011FD15A00DB0FFCF7AAFFD0
:1033400048F21F51C5F2EB11A0FB01235A0905F108
:10335000805302FB0300322303EBC000A0FB0101FA
:103360004FF4F87000EA111000EB0210C1F34211A3
:10337000084421688860B0BD9A009B0FFCF78AFF63
:1033800048F21F51C5F2EB11A0FB01235A0902FBC1
:103390000500322303EB0010A0FB0101F02000EA3E
:1033A000511000EB0210C1F34311084421688860FA
:1033B000B0BD000041F2E800C2F200000068016800
:1033C000C90625D580B582B000210191016801911F
:1033D00040680190019841F2E800C2F20000FEF757
:1033E0009BFE41F28800C2F20000006840F60A012C
:1033F0004068081A40F27201C2F20001088040F2EF
:103400007000C2F200000121017002B0BDE88040EE
:1034100041F2E800C2F20000FEF78EBFFEE70000B6
:103420004EF60C50BFF34F8FCEF20000016804221D
:1034300001F4E061C0F2FA5211430160BFF34F8F13
:1034400000BF00BF00BF00BFFAE700000024C4F2C5
:103450000204FEF7B5FAFFF7DBFCFFF74FFCFFF7BE
:103460008BFCFDF723FB002040F6B83840F6B93757
:1034700002E000BF012000BF0646FEF78DFA0546B8
:10348000FDF796FB20464021FEF778FA4FF4FA70DC
:10349000FEF73AF8FDF728FB00284FF00100EBD1CA
:1034A00016B1FEF779FA0546FEF776FA401B40455D
:1034B00013D800BFFDF77CFB20464021FEF75EFAE3
:1034C0004FF4FA70FEF720F8FDF70EFB0028D1D17B
:1034D000FEF762FA401BB842ECD3FDF7ADF80028C6
:1034E0004FF00000C8D0C820FEF70EF8FDF706FB2D
:1034F0000020C1E7F1EE100A4FF6FF71C0F2C031B3
:1035000020EA010040F04070E1EE100A7047000030
:103510000000000000000102030406070809000083
:103520000000010203040006101600061016000039
:10353000C1C081C1400101C3C003800241C201C6B4
:10354000C006800741C70005C1C581C4400401CC45
:10355000C00C800D41CD000FC1CF81CE400E000ABE
:10356000C1CA81CB400B01C9C009800841C801D83C
:10357000C018801941D9001BC1DB81DA401A001E36
:10358000C1DE81DF401F01DDC01D801C41DC001455
:10359000C1D481D5401501D7C017801641D601D2BC
:1035A000C012801341D30011C1D181D0401001F06D
:1035B000C030803141F10033C1F381F24032003636
:1035C000C1F681F7403701F5C035803441F4003C45
:1035D000C1FC81FD403D01FFC03F803E41FE01FA3C
:1035E000C03A803B41FB0039C1F981F840380028DE
:1035F000C1E881E9402901EBC02B802A41EA01EEB4
:10360000C02E802F41EF002DC1ED81EC402C01E454
:10361000C024802541E50027C1E781E6402600223D
:10362000C1E281E3402301E1C021802041E001A00B
:10363000C060806141A10063C1A381A240620066B5
:10364000C1A681A7406701A5C065806441A4006C44
:10365000C1AC81AD406D01AFC06F806E41AE01AABB
:10366000C06A806B41AB0069C1A981A8406800783D
:10367000C1B881B9407901BBC07B807A41BA01BE33
:10368000C07E807F41BF007DC1BD81BC407C01B454
:10369000C074807541B50077C1B781B640760072BD
:1036A000C1B281B3407301B1C071807041B00050AC
:1036B000C190819140510193C05380524192019633
:1036C000C056805741970055C19581944054019C44
:1036D000C05C805D419D005FC19F819E405E005A3D
:1036E000C19A819B405B0199C059805841980188DB
:1036F000C04880494189004BC18B818A404A004EB5
:10370000C18E818F404F018DC04D804C418C004453
:10371000C184818540450187C0478046418601823A
:10372000C042804341830041C1818180404000000C
:10373000503700080000002010000000EC010008D5
:103740006037000810000020481700000C02000835
:1037500001000000100000000024F4000000020836
:040000050800018965
:00000001FF
